:060000000A128A110E280D
:10000800FE00030EF0000408F1000A08F2000A12CC
:100018008A11B0290A128A111128F80183120313D0
:10002800A001A101A201A301A401A501A601A701A4
:10003800A801A901AA01AB01AC0183010A128A1126
:1000480025288316031388018030870086018312D0
:100058000313061086138130831603139900243086
:10006800980090308312031398008B170B17831690
:1000780003138C160A128A114D220A128A11503063
:1000880083120313AD008030AE000A128A112522B4
:100098000A128A114D3083120313B1001930B000CF
:1000A8004F30AF00AF0B5628B00B5628B10B56286F
:1000B80001300A128A1189220A128A110130831228
:1000C8000313AD008030AE000A128A1125220A12ED
:1000D8008A110C307806031D722873286D28831244
:1000E8000313AC0101300A128A1189220A128A11FB
:1000F8001D3083120313AD008030AE000A128A113E
:1001080025220A128A11C0300A128A1189220A127B
:100118008A11203083120313AD000030AE000A129A
:100128008A1125220A128A11273083120313B1007B
:100138000D30B0002530AF00AF0BA028B00BA028C1
:10014800B10BA028A7282030F4001030F5000A12BF
:100158008A11F5210A128A11740875040319B52841
:10016800B628C5282030F4002A30F5000A128A1172
:10017800F5210A128A1174087504031DC428C528BC
:10018800FD28831203138617061001300A128A11FC
:1001980089220A128A11443083120313AD00803079
:1001A800AE000A128A1125220A128A11C0300A12D8
:1001B8008A1189220A128A115C3083120313AD0056
:1001C8008030AE000A128A1125220A128A113330B1
:1001D80083120313B100BB30B000DF30AF00AF0BA8
:1001E800F328B00BF328B10BF328831203138613FB
:1001F8002429831203138613061401300A128A1164
:1002080089220A128A11373083120313AD00803015
:10021800AE000A128A1125220A128A112730831287
:100228000313B1000D30B0002530AF00AF0B1A2911
:10023800B00B1A29B10B1A292129831203130610AE
:100248000A128A11A2220A128A1101300A128A118C
:1002580089220A128A11013083120313AD008030FB
:10026800AE000A128A1125220A128A116D280A1272
:100278008A110E28FF1B482983137F18831700084B
:10028800840A0319FF0A080001308A000408840A56
:10029800820700345334633461346E342034593463
:1002A8006F347534723420344334613472346434B6
:1002B800003430343234303430343634413430342D
:1002C80042343234363434343534003453347434AC
:1002D8007534643465346E34743420345534493498
:1002E80044343A34003430343234303430343634F0
:1002F80039343534423438344534423445340034A2
:1003080049346E34763461346C346934643420345E
:100318004334613472346434003441347434743492
:1003280065346E34643461346E3463346534203437
:100338000034523446344934443420345334593424
:100348005334543445344D3400344D3461347234AC
:100358006B34653464340034831203138C1EB5295E
:10036800B629EC291A08F30030307302031CBD29A2
:10037800BE29C4293A307302031CC329C429D029D1
:1003880041307302031CC929CA29E5294730730281
:100398000318CF29D029E5290C3078020318D5296C
:1003A800D629E5297808203E840073088313800045
:1003B8000130F8070C307806031DE329E429E52904
:1003C800AC01981CE829E929EB29181218168C1297
:1003D80072088A0071088400700E8300FE0E7E0E7B
:1003E8000900FA290130F4070130F507750884007F
:1003F8000A128A1148210A128A11F6007408840028
:10040800831300087606031D0A2A0B2A122A740889
:1004180084000008031D112A122AF6297508840091
:100428000A128A1148210A128A11F60074088400F7
:100438000008F70076087702F400F501031CF503BD
:1004480008003C2A2E08FF002D0884000A128A1191
:100458003E210A128A110A128A1170220A128A117E
:10046800013083120313AD070318AE0A0030AE073C
:10047800831203132E08FF002D0884000A128A1124
:100488003E210A128A11003A031D4B2A4C2A262AB9
:10049800080038300A128A1189220A128A110C308F
:1004A8000A128A1189220A128A1106300A128A113E
:1004B80089220A128A1101300A128A1189220A1223
:1004C8008A110D3083120313AE00FB30AD00AD0B63
:1004D8006B2AAE0B6B2A0800F700831203138614ED
:1004E8007708880006150D30F600FB30F500F50B8F
:1004F8007B2AF60B7B2A802A8312031306110A1221
:100508008A11B2220A128A110800F7008312031313
:1005180086107708880006150D30F600FB30F500C8
:10052800F50B942AF60B942A992A831203130611C1
:100538000A128A11B2220A128A110800F4017408F8
:10054800203E8400831380010130F4070D307402CB
:10055800031CAF2AB02AA32AF8010800F4010130CD
:10056800F407FA307402031CBA2ABB2AB32A08001B
:08400000FF3FFF3FFF3FFF3FC0
:02400E00723FFF
:00000001FF
